{
  "contractName": "Timestamping",
  "abi": [
    {
      "inputs": [],
      "stateMutability": "nonpayable",
      "type": "constructor"
    },
    {
      "anonymous": false,
      "inputs": [
        {
          "indexed": false,
          "internalType": "string",
          "name": "_data",
          "type": "string"
        },
        {
          "indexed": false,
          "internalType": "uint256",
          "name": "_t2",
          "type": "uint256"
        },
        {
          "indexed": false,
          "internalType": "uint256",
          "name": "_t3",
          "type": "uint256"
        }
      ],
      "name": "Datasender",
      "type": "event"
    },
    {
      "inputs": [
        {
          "internalType": "string",
          "name": "data",
          "type": "string"
        }
      ],
      "name": "requestTimestamp",
      "outputs": [],
      "stateMutability": "payable",
      "type": "function",
      "payable": true
    },
    {
      "inputs": [],
      "name": "joinStamper",
      "outputs": [],
      "stateMutability": "payable",
      "type": "function",
      "payable": true
    },
    {
      "inputs": [
        {
          "internalType": "string",
          "name": "data",
          "type": "string"
        },
        {
          "internalType": "bytes32",
          "name": "commitment",
          "type": "bytes32"
        }
      ],
      "name": "sendCommitment",
      "outputs": [],
      "stateMutability": "nonpayable",
      "type": "function"
    },
    {
      "inputs": [
        {
          "internalType": "string",
          "name": "data",
          "type": "string"
        },
        {
          "internalType": "uint256",
          "name": "time",
          "type": "uint256"
        },
        {
          "internalType": "uint256",
          "name": "nonce",
          "type": "uint256"
        }
      ],
      "name": "revealCommitment",
      "outputs": [],
      "stateMutability": "nonpayable",
      "type": "function"
    },
    {
      "inputs": [
        {
          "internalType": "string",
          "name": "data",
          "type": "string"
        }
      ],
      "name": "selectStampRequester",
      "outputs": [],
      "stateMutability": "nonpayable",
      "type": "function"
    },
    {
      "inputs": [
        {
          "internalType": "string",
          "name": "data",
          "type": "string"
        }
      ],
      "name": "getTimestamp",
      "outputs": [
        {
          "internalType": "uint256",
          "name": "",
          "type": "uint256"
        }
      ],
      "stateMutability": "view",
      "type": "function",
      "constant": true
    },
    {
      "inputs": [
        {
          "internalType": "string",
          "name": "data",
          "type": "string"
        }
      ],
      "name": "getRequester",
      "outputs": [
        {
          "internalType": "address",
          "name": "",
          "type": "address"
        }
      ],
      "stateMutability": "view",
      "type": "function",
      "constant": true
    },
    {
      "inputs": [
        {
          "internalType": "string",
          "name": "data",
          "type": "string"
        }
      ],
      "name": "isCommitmentInterval",
      "outputs": [
        {
          "internalType": "uint256",
          "name": "",
          "type": "uint256"
        }
      ],
      "stateMutability": "view",
      "type": "function",
      "constant": true
    },
    {
      "inputs": [
        {
          "internalType": "string",
          "name": "data",
          "type": "string"
        }
      ],
      "name": "isRevealInterval",
      "outputs": [
        {
          "internalType": "uint256",
          "name": "",
          "type": "uint256"
        }
      ],
      "stateMutability": "view",
      "type": "function",
      "constant": true
    },
    {
      "inputs": [
        {
          "internalType": "string",
          "name": "data",
          "type": "string"
        }
      ],
      "name": "isSelectStampInterval",
      "outputs": [
        {
          "internalType": "uint256",
          "name": "",
          "type": "uint256"
        }
      ],
      "stateMutability": "view",
      "type": "function",
      "constant": true
    },
    {
      "inputs": [],
      "name": "blockNumber",
      "outputs": [
        {
          "internalType": "uint256",
          "name": "",
          "type": "uint256"
        }
      ],
      "stateMutability": "view",
      "type": "function",
      "constant": true
    },
    {
      "inputs": [
        {
          "internalType": "string",
          "name": "data",
          "type": "string"
        }
      ],
      "name": "getOrderT1",
      "outputs": [
        {
          "internalType": "uint256",
          "name": "",
          "type": "uint256"
        }
      ],
      "stateMutability": "view",
      "type": "function",
      "constant": true
    },
    {
      "inputs": [
        {
          "internalType": "string",
          "name": "data",
          "type": "string"
        }
      ],
      "name": "getOrderT2",
      "outputs": [
        {
          "internalType": "uint256",
          "name": "",
          "type": "uint256"
        }
      ],
      "stateMutability": "view",
      "type": "function",
      "constant": true
    },
    {
      "inputs": [
        {
          "internalType": "string",
          "name": "data",
          "type": "string"
        }
      ],
      "name": "getOrderT3",
      "outputs": [
        {
          "internalType": "uint256",
          "name": "",
          "type": "uint256"
        }
      ],
      "stateMutability": "view",
      "type": "function",
      "constant": true
    },
    {
      "inputs": [
        {
          "internalType": "string",
          "name": "data",
          "type": "string"
        }
      ],
      "name": "getOrderDeposit",
      "outputs": [
        {
          "internalType": "uint256",
          "name": "",
          "type": "uint256"
        }
      ],
      "stateMutability": "view",
      "type": "function",
      "constant": true
    },
    {
      "inputs": [
        {
          "internalType": "string",
          "name": "data",
          "type": "string"
        }
      ],
      "name": "getStatus",
      "outputs": [
        {
          "internalType": "uint256",
          "name": "",
          "type": "uint256"
        }
      ],
      "stateMutability": "view",
      "type": "function",
      "constant": true
    },
    {
      "inputs": [],
      "name": "getStampers",
      "outputs": [
        {
          "internalType": "address[]",
          "name": "",
          "type": "address[]"
        }
      ],
      "stateMutability": "view",
      "type": "function",
      "constant": true
    },
    {
      "inputs": [
        {
          "internalType": "uint256",
          "name": "value",
          "type": "uint256"
        }
      ],
      "name": "setBail",
      "outputs": [],
      "stateMutability": "nonpayable",
      "type": "function"
    },
    {
      "inputs": [
        {
          "internalType": "uint256",
          "name": "value",
          "type": "uint256"
        }
      ],
      "name": "setMinimumProviders",
      "outputs": [],
      "stateMutability": "nonpayable",
      "type": "function"
    },
    {
      "inputs": [
        {
          "internalType": "uint256",
          "name": "value",
          "type": "uint256"
        }
      ],
      "name": "setRewardWindow",
      "outputs": [],
      "stateMutability": "nonpayable",
      "type": "function"
    },
    {
      "inputs": [
        {
          "internalType": "uint256",
          "name": "value",
          "type": "uint256"
        }
      ],
      "name": "setCommitmentWindow",
      "outputs": [],
      "stateMutability": "nonpayable",
      "type": "function"
    },
    {
      "inputs": [
        {
          "internalType": "uint256",
          "name": "value",
          "type": "uint256"
        }
      ],
      "name": "setMinimumDeposit",
      "outputs": [],
      "stateMutability": "nonpayable",
      "type": "function"
    },
    {
      "inputs": [
        {
          "internalType": "uint256",
          "name": "value",
          "type": "uint256"
        }
      ],
      "name": "setCommitmentsLimit",
      "outputs": [],
      "stateMutability": "nonpayable",
      "type": "function"
    },
    {
      "inputs": [
        {
          "internalType": "uint256",
          "name": "value",
          "type": "uint256"
        }
      ],
      "name": "setReimburseRequester",
      "outputs": [],
      "stateMutability": "nonpayable",
      "type": "function"
    },
    {
      "inputs": [
        {
          "internalType": "uint256",
          "name": "value",
          "type": "uint256"
        }
      ],
      "name": "setReimburseProvider",
      "outputs": [],
      "stateMutability": "nonpayable",
      "type": "function"
    },
    {
      "inputs": [],
      "name": "withdrawalAndContinue",
      "outputs": [],
      "stateMutability": "payable",
      "type": "function",
      "payable": true
    },
    {
      "inputs": [],
      "name": "withdrawalAll",
      "outputs": [],
      "stateMutability": "payable",
      "type": "function",
      "payable": true
    },
    {
      "inputs": [],
      "name": "getBalance",
      "outputs": [
        {
          "internalType": "uint256",
          "name": "",
          "type": "uint256"
        }
      ],
      "stateMutability": "view",
      "type": "function",
      "constant": true
    },
    {
      "inputs": [
        {
          "internalType": "string",
          "name": "data",
          "type": "string"
        }
      ],
      "name": "getOrderStampTimes",
      "outputs": [
        {
          "internalType": "uint256[]",
          "name": "",
          "type": "uint256[]"
        }
      ],
      "stateMutability": "view",
      "type": "function",
      "constant": true
    },
    {
      "inputs": [],
      "name": "getByt",
      "outputs": [
        {
          "internalType": "bytes32",
          "name": "",
          "type": "bytes32"
        }
      ],
      "stateMutability": "view",
      "type": "function",
      "constant": true
    },
    {
      "inputs": [],
      "name": "getAddr",
      "outputs": [
        {
          "internalType": "address",
          "name": "",
          "type": "address"
        }
      ],
      "stateMutability": "view",
      "type": "function",
      "constant": true
    },
    {
      "inputs": [],
      "name": "getUin",
      "outputs": [
        {
          "internalType": "uint256",
          "name": "",
          "type": "uint256"
        }
      ],
      "stateMutability": "view",
      "type": "function",
      "constant": true
    },
    {
      "inputs": [],
      "name": "getBalanceThis",
      "outputs": [
        {
          "internalType": "uint256",
          "name": "",
          "type": "uint256"
        }
      ],
      "stateMutability": "view",
      "type": "function",
      "constant": true
    }
  ],
  "bytecode": "0x60806040526000600555670de0b6b3a76400006006556003600755600a6008556010600955662386f26fc10000600a55600a600b55662386f26fc10000600c5566038d7ea4c68000600d5534801561005657600080fd5b50336000806101000a81548173ffffffffffffffffffffffffffffffffffffffff021916908373ffffffffffffffffffffffffffffffffffffffff1602179055506133f6806100a66000396000f3fe6080604052600436106101ee5760003560e01c80637db68cc11161010d578063a8cefefa116100a0578063d35fa8c01161006f578063d35fa8c0146106fa578063d95806d214610723578063e78ec42e14610760578063ef35bcce14610789578063f44b79b3146107b2576101ee565b8063a8cefefa1461064f578063aef62df314610678578063b59dc67b146106b5578063b878e1b0146106de576101ee565b806394deaac0116100dc57806394deaac0146105a95780639a540ace146105d2578063a74c2bb6146105fb578063a7873d4214610626576101ee565b80637db68cc11461050c5780637f19dc77146105375780637f277e37146105415780638484485d1461057e576101ee565b80633ef4a902116101855780636716de77116101545780636716de771461042a5780636f05e791146104675780637a7aa571146104a45780637b3660ee146104cf576101ee565b80633ef4a9021461035c578063474cb9281461038557806357e871e7146103c25780635d10e4e4146103ed576101ee565b806322b05ed2116101c157806322b05ed21461028e57806332e5e595146102cb57806334976699146103085780633550e45914610333576101ee565b806312065fe0146101f3578063130ed8c51461021e5780631b20b36d14610247578063205945f314610251575b600080fd5b3480156101ff57600080fd5b506102086107bc565b604051610215919061298b565b60405180910390f35b34801561022a57600080fd5b5061024560048036038101906102409190612b2c565b610803565b005b61024f610a3f565b005b34801561025d57600080fd5b5061027860048036038101906102739190612b9b565b610c34565b6040516102859190612ca2565b60405180910390f35b34801561029a57600080fd5b506102b560048036038101906102b09190612b9b565b610cad565b6040516102c2919061298b565b60405180910390f35b3480156102d757600080fd5b506102f260048036038101906102ed9190612b9b565b610cd8565b6040516102ff919061298b565b60405180910390f35b34801561031457600080fd5b5061031d610d03565b60405161032a9190612db4565b60405180910390f35b34801561033f57600080fd5b5061035a60048036038101906103559190612dd6565b610d91565b005b34801561036857600080fd5b50610383600480360381019061037e9190612b9b565b610df3565b005b34801561039157600080fd5b506103ac60048036038101906103a79190612b9b565b6112fb565b6040516103b9919061298b565b60405180910390f35b3480156103ce57600080fd5b506103d7611326565b6040516103e4919061298b565b60405180910390f35b3480156103f957600080fd5b50610414600480360381019061040f9190612b9b565b61132e565b604051610421919061298b565b60405180910390f35b34801561043657600080fd5b50610451600480360381019061044c9190612b9b565b611359565b60405161045e919061298b565b60405180910390f35b34801561047357600080fd5b5061048e60048036038101906104899190612b9b565b6113c6565b60405161049b919061298b565b60405180910390f35b3480156104b057600080fd5b506104b96113f1565b6040516104c69190612e1c565b60405180910390f35b3480156104db57600080fd5b506104f660048036038101906104f19190612b9b565b6113fb565b604051610503919061298b565b60405180910390f35b34801561051857600080fd5b50610521611492565b60405161052e919061298b565b60405180910390f35b61053f61149c565b005b34801561054d57600080fd5b5061056860048036038101906105639190612b9b565b6115db565b6040516105759190612e46565b60405180910390f35b34801561058a57600080fd5b50610593611626565b6040516105a0919061298b565b60405180910390f35b3480156105b557600080fd5b506105d060048036038101906105cb9190612dd6565b61162e565b005b3480156105de57600080fd5b506105f960048036038101906105f49190612dd6565b611690565b005b34801561060757600080fd5b506106106116f2565b60405161061d9190612e46565b60405180910390f35b34801561063257600080fd5b5061064d60048036038101906106489190612dd6565b61171c565b005b34801561065b57600080fd5b5061067660048036038101906106719190612e8d565b61177e565b005b34801561068457600080fd5b5061069f600480360381019061069a9190612b9b565b6118cc565b6040516106ac919061298b565b60405180910390f35b3480156106c157600080fd5b506106dc60048036038101906106d79190612dd6565b611937565b005b6106f860048036038101906106f39190612b9b565b611999565b005b34801561070657600080fd5b50610721600480360381019061071c9190612dd6565b611ba8565b005b34801561072f57600080fd5b5061074a60048036038101906107459190612b9b565b611c0a565b604051610757919061298b565b60405180910390f35b34801561076c57600080fd5b5061078760048036038101906107829190612dd6565b611c35565b005b34801561079557600080fd5b506107b060048036038101906107ab9190612dd6565b611c97565b005b6107ba611cf9565b005b6000600460003373ffffffffffffffffffffffffffffffffffffffff1673ffffffffffffffffffffffffffffffffffffffff16815260200190815260200160002054905090565b826001600260003373ffffffffffffffffffffffffffffffffffffffff1673ffffffffffffffffffffffffffffffffffffffff168152602001908152602001600020541461085057600080fd5b600161085b826118cc565b1461086557600080fd5b60005b6001856040516108789190612f63565b908152602001604051809103902060000180549050811015610a38573373ffffffffffffffffffffffffffffffffffffffff166001866040516108bb9190612f63565b908152602001604051809103902060000182815481106108de576108dd612f7a565b5b9060005260206000200160009054906101000a900473ffffffffffffffffffffffffffffffffffffffff1673ffffffffffffffffffffffffffffffffffffffff1603610a25576001856040516109349190612f63565b9081526020016040518091039020600101818154811061095757610956612f7a565b5b906000526020600020015485858560405160200161097793929190612fca565b6040516020818303038152906040528051906020012003610a20578360001b6001866040516109a69190612f63565b908152602001604051809103902060010182815481106109c9576109c8612f7a565b5b90600052602060002001819055506001856040516109e79190612f63565b90815260200160405180910390206002018490806001815401808255809150506001900390600052602060002001600090919091909150555b610a38565b8080610a3090613032565b915050610868565b5050505050565b60006001905060005b600380549050811015610ae2573373ffffffffffffffffffffffffffffffffffffffff1660038281548110610a8057610a7f612f7a565b5b9060005260206000200160009054906101000a900473ffffffffffffffffffffffffffffffffffffffff1673ffffffffffffffffffffffffffffffffffffffff1603610acf5760009150610ae2565b8080610ada90613032565b915050610a48565b508015610b4d576003339080600181540180825580915050600190039060005260206000200160009091909190916101000a81548173ffffffffffffffffffffffffffffffffffffffff021916908373ffffffffffffffffffffffffffffffffffffffff1602179055505b34600460003373ffffffffffffffffffffffffffffffffffffffff1673ffffffffffffffffffffffffffffffffffffffff1681526020019081526020016000206000828254610b9c919061307a565b92505081905550600654600460003373ffffffffffffffffffffffffffffffffffffffff1673ffffffffffffffffffffffffffffffffffffffff1681526020019081526020016000205410610c31576001600260003373ffffffffffffffffffffffffffffffffffffffff1673ffffffffffffffffffffffffffffffffffffffff168152602001908152602001600020819055505b50565b6060600182604051610c469190612f63565b9081526020016040518091039020600201805480602002602001604051908101604052809291908181526020018280548015610ca157602002820191906000526020600020905b815481526020019060010190808311610c8d575b50505050509050919050565b6000600182604051610cbf9190612f63565b9081526020016040518091039020600901549050919050565b6000600182604051610cea9190612f63565b9081526020016040518091039020600801549050919050565b60606003805480602002602001604051908101604052809291908181526020018280548015610d8757602002820191906000526020600020905b8160009054906101000a900473ffffffffffffffffffffffffffffffffffffffff1673ffffffffffffffffffffffffffffffffffffffff1681526020019060010190808311610d3d575b5050505050905090565b3373ffffffffffffffffffffffffffffffffffffffff1660008054906101000a900473ffffffffffffffffffffffffffffffffffffffff1673ffffffffffffffffffffffffffffffffffffffff1614610de957600080fd5b8060068190555050565b803373ffffffffffffffffffffffffffffffffffffffff16600182604051610e1b9190612f63565b908152602001604051809103902060030160009054906101000a900473ffffffffffffffffffffffffffffffffffffffff1673ffffffffffffffffffffffffffffffffffffffff1614610e6d57600080fd5b6001610e7882611359565b14610e8257600080fd5b600754600183604051610e959190612f63565b9081526020016040518091039020600201805490501015610ee557610eb982611e25565b6002600183604051610ecb9190612f63565b9081526020016040518091039020600901819055506111dc565b610eee82612312565b60008060018085604051610f029190612f63565b908152602001604051809103902060020180549050610f2191906130d0565b90506000600260018087604051610f389190612f63565b908152602001604051809103902060020180549050610f5791906130d0565b610f619190613133565b905060005b600186604051610f769190612f63565b9081526020016040518091039020600201805490508110156110ec57600854600187604051610fa59190612f63565b90815260200160405180910390206002018381548110610fc857610fc7612f7a565b5b9060005260206000200154610fdd91906130d0565b600187604051610fed9190612f63565b908152602001604051809103902060020182815481106110105761100f612f7a565b5b906000526020600020015410156110355760018461102e919061307a565b93506110d9565b6008546001876040516110489190612f63565b9081526020016040518091039020600201838154811061106b5761106a612f7a565b5b9060005260206000200154611080919061307a565b6001876040516110909190612f63565b908152602001604051809103902060020182815481106110b3576110b2612f7a565b5b906000526020600020015411156110d8576001816110d191906130d0565b92506110ec565b5b80806110e490613032565b915050610f66565b50600754600184846110fe91906130d0565b611108919061307a565b10156111435761111785611e25565b60026001866040516111299190612f63565b9081526020016040518091039020600901819055506111d8565b6001856040516111539190612f63565b9081526020016040518091039020600201838154811061117657611175612f7a565b5b90600052602060002001546001866040516111919190612f63565b9081526020016040518091039020600801819055506111b1858484612350565b600180866040516111c29190612f63565b9081526020016040518091039020600901819055505b5050505b6001826040516111ec9190612f63565b9081526020016040518091039020600001600061120991906128d5565b6001826040516112199190612f63565b9081526020016040518091039020600101600061123691906128f6565b6001826040516112469190612f63565b908152602001604051809103902060020160006112639190612917565b6001826040516112739190612f63565b9081526020016040518091039020600401600090556001826040516112989190612f63565b9081526020016040518091039020600501600090556001826040516112bd9190612f63565b9081526020016040518091039020600601600090556001826040516112e29190612f63565b9081526020016040518091039020600701600090555050565b600060018260405161130d9190612f63565b9081526020016040518091039020600601549050919050565b600043905090565b60006001826040516113409190612f63565b9081526020016040518091039020600701549050919050565b600060018260405161136b9190612f63565b90815260200160405180910390206006015442101580156113ae575060006001836040516113999190612f63565b90815260200160405180910390206006015414155b156113bc57600190506113c1565b600090505b919050565b60006001826040516113d89190612f63565b9081526020016040518091039020600401549050919050565b6000600e54905090565b600060018260405161140d9190612f63565b90815260200160405180910390206005015442108061144d575060006001836040516114399190612f63565b908152602001604051809103902060040154145b801561147a575060006001836040516114669190612f63565b908152602001604051809103902060090154145b15611488576001905061148d565b600090505b919050565b6000601054905090565b4360306005546114ac919061307a565b106114b657600080fd5b600654600460003373ffffffffffffffffffffffffffffffffffffffff1673ffffffffffffffffffffffffffffffffffffffff1681526020019081526020016000205411156115d9573373ffffffffffffffffffffffffffffffffffffffff166108fc600654600460003373ffffffffffffffffffffffffffffffffffffffff1673ffffffffffffffffffffffffffffffffffffffff1681526020019081526020016000205461156691906130d0565b9081150290604051600060405180830381858888f19350505050158015611591573d6000803e3d6000fd5b50600654600460003373ffffffffffffffffffffffffffffffffffffffff1673ffffffffffffffffffffffffffffffffffffffff168152602001908152602001600020819055505b565b60006001826040516115ed9190612f63565b908152602001604051809103902060030160009054906101000a900473ffffffffffffffffffffffffffffffffffffffff169050919050565b600047905090565b3373ffffffffffffffffffffffffffffffffffffffff1660008054906101000a900473ffffffffffffffffffffffffffffffffffffffff1673ffffffffffffffffffffffffffffffffffffffff161461168657600080fd5b80600b8190555050565b3373ffffffffffffffffffffffffffffffffffffffff1660008054906101000a900473ffffffffffffffffffffffffffffffffffffffff1673ffffffffffffffffffffffffffffffffffffffff16146116e857600080fd5b8060088190555050565b6000600f60009054906101000a900473ffffffffffffffffffffffffffffffffffffffff16905090565b3373ffffffffffffffffffffffffffffffffffffffff1660008054906101000a900473ffffffffffffffffffffffffffffffffffffffff1673ffffffffffffffffffffffffffffffffffffffff161461177457600080fd5b80600d8190555050565b816001600260003373ffffffffffffffffffffffffffffffffffffffff1673ffffffffffffffffffffffffffffffffffffffff16815260200190815260200160002054146117cb57600080fd5b600b546001826040516117de9190612f63565b908152602001604051809103902060010180549050106117fd57600080fd5b60018360405161180d9190612f63565b9081526020016040518091039020600001339080600181540180825580915050600190039060005260206000200160009091909190916101000a81548173ffffffffffffffffffffffffffffffffffffffff021916908373ffffffffffffffffffffffffffffffffffffffff16021790555060018360405161188f9190612f63565b9081526020016040518091039020600101829080600181540180825580915050600190039060005260206000200160009091909190915055505050565b60006001826040516118de9190612f63565b908152602001604051809103902060050154421015801561191f575060018260405161190a9190612f63565b90815260200160405180910390206006015442105b1561192d5760019050611932565b600090505b919050565b3373ffffffffffffffffffffffffffffffffffffffff1660008054906101000a900473ffffffffffffffffffffffffffffffffffffffff1673ffffffffffffffffffffffffffffffffffffffff161461198f57600080fd5b80600c8190555050565b600a543410156119a857600080fd5b336001826040516119b99190612f63565b908152602001604051809103902060030160006101000a81548173ffffffffffffffffffffffffffffffffffffffff021916908373ffffffffffffffffffffffffffffffffffffffff16021790555042600182604051611a199190612f63565b9081526020016040518091039020600401819055506010600182604051611a409190612f63565b908152602001604051809103902060040154611a5c919061307a565b600182604051611a6c9190612f63565b9081526020016040518091039020600501819055506010600182604051611a939190612f63565b908152602001604051809103902060050154611aaf919061307a565b600182604051611abf9190612f63565b90815260200160405180910390206006018190555034600182604051611ae59190612f63565b9081526020016040518091039020600701819055506000600182604051611b0c9190612f63565b908152602001604051809103902060090181905550436005819055507f7d10f90c53ce23a4ce167700974297702cb55ccdaac54607c167ccd1e112c5f681600183604051611b5a9190612f63565b908152602001604051809103902060050154600184604051611b7c9190612f63565b908152602001604051809103902060060154604051611b9d939291906131ae565b60405180910390a150565b3373ffffffffffffffffffffffffffffffffffffffff1660008054906101000a900473ffffffffffffffffffffffffffffffffffffffff1673ffffffffffffffffffffffffffffffffffffffff1614611c0057600080fd5b8060098190555050565b6000600182604051611c1c9190612f63565b9081526020016040518091039020600501549050919050565b3373ffffffffffffffffffffffffffffffffffffffff1660008054906101000a900473ffffffffffffffffffffffffffffffffffffffff1673ffffffffffffffffffffffffffffffffffffffff1614611c8d57600080fd5b80600a8190555050565b3373ffffffffffffffffffffffffffffffffffffffff1660008054906101000a900473ffffffffffffffffffffffffffffffffffffffff1673ffffffffffffffffffffffffffffffffffffffff1614611cef57600080fd5b8060078190555050565b436030600554611d09919061307a565b10611d1357600080fd5b3373ffffffffffffffffffffffffffffffffffffffff166108fc600460003373ffffffffffffffffffffffffffffffffffffffff1673ffffffffffffffffffffffffffffffffffffffff168152602001908152602001600020549081150290604051600060405180830381858888f19350505050158015611d98573d6000803e3d6000fd5b506000600460003373ffffffffffffffffffffffffffffffffffffffff1673ffffffffffffffffffffffffffffffffffffffff168152602001908152602001600020819055506000600260003373ffffffffffffffffffffffffffffffffffffffff1673ffffffffffffffffffffffffffffffffffffffff16815260200190815260200160002081905550565b6000600182604051611e379190612f63565b90815260200160405180910390206000018054905090506000805b600380549050811015611f065760016002600060038481548110611e7957611e78612f7a565b5b9060005260206000200160009054906101000a900473ffffffffffffffffffffffffffffffffffffffff1673ffffffffffffffffffffffffffffffffffffffff1673ffffffffffffffffffffffffffffffffffffffff1681526020019081526020016000205403611ef3578180611eef90613032565b9250505b8080611efe90613032565b915050611e52565b508181611f1391906130d0565b9050600081111561225457600081600d5484611f2f91906131ec565b600c54611f3c919061307a565b611f469190613133565b905060005b6003805490508110156120855760016002600060038481548110611f7257611f71612f7a565b5b9060005260206000200160009054906101000a900473ffffffffffffffffffffffffffffffffffffffff1673ffffffffffffffffffffffffffffffffffffffff1673ffffffffffffffffffffffffffffffffffffffff168152602001908152602001600020540361207257816004600060038481548110611ff657611ff5612f7a565b5b9060005260206000200160009054906101000a900473ffffffffffffffffffffffffffffffffffffffff1673ffffffffffffffffffffffffffffffffffffffff1673ffffffffffffffffffffffffffffffffffffffff168152602001908152602001600020600082825461206a91906130d0565b925050819055505b808061207d90613032565b915050611f4b565b5060005b6001856040516120999190612f63565b90815260200160405180910390206000018054905081101561218857600d54826120c3919061307a565b600460006001886040516120d79190612f63565b908152602001604051809103902060000184815481106120fa576120f9612f7a565b5b9060005260206000200160009054906101000a900473ffffffffffffffffffffffffffffffffffffffff1673ffffffffffffffffffffffffffffffffffffffff1673ffffffffffffffffffffffffffffffffffffffff168152602001908152602001600020600082825461216e919061307a565b92505081905550808061218090613032565b915050612089565b50600c5460018560405161219c9190612f63565b9081526020016040518091039020600701546121b8919061307a565b600460006001876040516121cc9190612f63565b908152602001604051809103902060030160009054906101000a900473ffffffffffffffffffffffffffffffffffffffff1673ffffffffffffffffffffffffffffffffffffffff1673ffffffffffffffffffffffffffffffffffffffff1681526020019081526020016000206000828254612247919061307a565b925050819055505061230d565b6001836040516122649190612f63565b9081526020016040518091039020600701546004600060018660405161228a9190612f63565b908152602001604051809103902060030160009054906101000a900473ffffffffffffffffffffffffffffffffffffffff1673ffffffffffffffffffffffffffffffffffffffff1673ffffffffffffffffffffffffffffffffffffffff1681526020019081526020016000206000828254612305919061307a565b925050819055505b505050565b61234d816000600180856040516123299190612f63565b90815260200160405180910390206002018054905061234891906130d0565b61253a565b50565b60006001838361236091906130d0565b61236a919061307a565b60018560405161237a9190612f63565b9081526020016040518091039020600701546123969190613133565b905060008390505b8281116125335760005b6001866040516123b89190612f63565b90815260200160405180910390206001018054905081101561251f576001866040516123e49190612f63565b9081526020016040518091039020600201828154811061240757612406612f7a565b5b906000526020600020015460001b6001876040516124259190612f63565b9081526020016040518091039020600101828154811061244857612447612f7a565b5b90600052602060002001540361250c57826004600060018960405161246d9190612f63565b908152602001604051809103902060000184815481106124905761248f612f7a565b5b9060005260206000200160009054906101000a900473ffffffffffffffffffffffffffffffffffffffff1673ffffffffffffffffffffffffffffffffffffffff1673ffffffffffffffffffffffffffffffffffffffff1681526020019081526020016000206000828254612504919061307a565b925050819055505b808061251790613032565b9150506123a8565b50808061252b90613032565b91505061239e565b5050505050565b808212156125d957600061254f8484846125de565b90503373ffffffffffffffffffffffffffffffffffffffff1660008054906101000a900473ffffffffffffffffffffffffffffffffffffffff1673ffffffffffffffffffffffffffffffffffffffff16146125a957600080fd5b6125c084846001846125bb9190613250565b61253a565b6125d7846001836125d191906132e4565b8461253a565b505b505050565b6000806001846125ee9190613250565b90506000808590505b848112156127a35760018760405161260f9190612f63565b9081526020016040518091039020600201858154811061263257612631612f7a565b5b906000526020600020015460018860405161264d9190612f63565b908152602001604051809103902060020182815481106126705761266f612f7a565b5b90600052602060002001541161279057828061268b90613378565b93505060018760405161269e9190612f63565b908152602001604051809103902060020183815481106126c1576126c0612f7a565b5b906000526020600020015491506001876040516126de9190612f63565b9081526020016040518091039020600201818154811061270157612700612f7a565b5b906000526020600020015460018860405161271c9190612f63565b9081526020016040518091039020600201848154811061273f5761273e612f7a565b5b90600052602060002001819055508160018860405161275e9190612f63565b9081526020016040518091039020600201828154811061278157612780612f7a565b5b90600052602060002001819055505b808061279b90613378565b9150506125f7565b506001866040516127b49190612f63565b90815260200160405180910390206002016001836127d291906132e4565b815481106127e3576127e2612f7a565b5b906000526020600020015490506001866040516128009190612f63565b9081526020016040518091039020600201848154811061282357612822612f7a565b5b906000526020600020015460018760405161283e9190612f63565b908152602001604051809103902060020160018461285c91906132e4565b8154811061286d5761286c612f7a565b5b90600052602060002001819055508060018760405161288c9190612f63565b908152602001604051809103902060020185815481106128af576128ae612f7a565b5b90600052602060002001819055506001826128ca91906132e4565b925050509392505050565b50805460008255906000526020600020908101906128f39190612938565b50565b50805460008255906000526020600020908101906129149190612955565b50565b50805460008255906000526020600020908101906129359190612938565b50565b5b80821115612951576000816000905550600101612939565b5090565b5b8082111561296e576000816000905550600101612956565b5090565b6000819050919050565b61298581612972565b82525050565b60006020820190506129a0600083018461297c565b92915050565b6000604051905090565b600080fd5b600080fd5b600080fd5b600080fd5b6000601f19601f8301169050919050565b7f4e487b7100000000000000000000000000000000000000000000000000000000600052604160045260246000fd5b612a0d826129c4565b810181811067ffffffffffffffff82111715612a2c57612a2b6129d5565b5b80604052505050565b6000612a3f6129a6565b9050612a4b8282612a04565b919050565b600067ffffffffffffffff821115612a6b57612a6a6129d5565b5b612a74826129c4565b9050602081019050919050565b82818337600083830152505050565b6000612aa3612a9e84612a50565b612a35565b905082815260208101848484011115612abf57612abe6129bf565b5b612aca848285612a81565b509392505050565b600082601f830112612ae757612ae66129ba565b5b8135612af7848260208601612a90565b91505092915050565b612b0981612972565b8114612b1457600080fd5b50565b600081359050612b2681612b00565b92915050565b600080600060608486031215612b4557612b446129b0565b5b600084013567ffffffffffffffff811115612b6357612b626129b5565b5b612b6f86828701612ad2565b9350506020612b8086828701612b17565b9250506040612b9186828701612b17565b9150509250925092565b600060208284031215612bb157612bb06129b0565b5b600082013567ffffffffffffffff811115612bcf57612bce6129b5565b5b612bdb84828501612ad2565b91505092915050565b600081519050919050565b600082825260208201905092915050565b6000819050602082019050919050565b612c1981612972565b82525050565b6000612c2b8383612c10565b60208301905092915050565b6000602082019050919050565b6000612c4f82612be4565b612c598185612bef565b9350612c6483612c00565b8060005b83811015612c95578151612c7c8882612c1f565b9750612c8783612c37565b925050600181019050612c68565b5085935050505092915050565b60006020820190508181036000830152612cbc8184612c44565b905092915050565b600081519050919050565b600082825260208201905092915050565b6000819050602082019050919050565b600073ffffffffffffffffffffffffffffffffffffffff82169050919050565b6000612d1b82612cf0565b9050919050565b612d2b81612d10565b82525050565b6000612d3d8383612d22565b60208301905092915050565b6000602082019050919050565b6000612d6182612cc4565b612d6b8185612ccf565b9350612d7683612ce0565b8060005b83811015612da7578151612d8e8882612d31565b9750612d9983612d49565b925050600181019050612d7a565b5085935050505092915050565b60006020820190508181036000830152612dce8184612d56565b905092915050565b600060208284031215612dec57612deb6129b0565b5b6000612dfa84828501612b17565b91505092915050565b6000819050919050565b612e1681612e03565b82525050565b6000602082019050612e316000830184612e0d565b92915050565b612e4081612d10565b82525050565b6000602082019050612e5b6000830184612e37565b92915050565b612e6a81612e03565b8114612e7557600080fd5b50565b600081359050612e8781612e61565b92915050565b60008060408385031215612ea457612ea36129b0565b5b600083013567ffffffffffffffff811115612ec257612ec16129b5565b5b612ece85828601612ad2565b9250506020612edf85828601612e78565b9150509250929050565b600081519050919050565b600081905092915050565b60005b83811015612f1d578082015181840152602081019050612f02565b83811115612f2c576000848401525b50505050565b6000612f3d82612ee9565b612f478185612ef4565b9350612f57818560208601612eff565b80840191505092915050565b6000612f6f8284612f32565b915081905092915050565b7f4e487b7100000000000000000000000000000000000000000000000000000000600052603260045260246000fd5b6000819050919050565b612fc4612fbf82612972565b612fa9565b82525050565b6000612fd68286612f32565b9150612fe28285612fb3565b602082019150612ff28284612fb3565b602082019150819050949350505050565b7f4e487b7100000000000000000000000000000000000000000000000000000000600052601160045260246000fd5b600061303d82612972565b91507fffffffffffffffffffffffffffffffffffffffffffffffffffffffffffffffff820361306f5761306e613003565b5b600182019050919050565b600061308582612972565b915061309083612972565b9250827fffffffffffffffffffffffffffffffffffffffffffffffffffffffffffffffff038211156130c5576130c4613003565b5b828201905092915050565b60006130db82612972565b91506130e683612972565b9250828210156130f9576130f8613003565b5b828203905092915050565b7f4e487b7100000000000000000000000000000000000000000000000000000000600052601260045260246000fd5b600061313e82612972565b915061314983612972565b92508261315957613158613104565b5b828204905092915050565b600082825260208201905092915050565b600061318082612ee9565b61318a8185613164565b935061319a818560208601612eff565b6131a3816129c4565b840191505092915050565b600060608201905081810360008301526131c88186613175565b90506131d7602083018561297c565b6131e4604083018461297c565b949350505050565b60006131f782612972565b915061320283612972565b9250817fffffffffffffffffffffffffffffffffffffffffffffffffffffffffffffffff048311821515161561323b5761323a613003565b5b828202905092915050565b6000819050919050565b600061325b82613246565b915061326683613246565b9250827f8000000000000000000000000000000000000000000000000000000000000000018212600084121516156132a1576132a0613003565b5b827f7fffffffffffffffffffffffffffffffffffffffffffffffffffffffffffffff0182136000841216156132d9576132d8613003565b5b828203905092915050565b60006132ef82613246565b91506132fa83613246565b9250817f7fffffffffffffffffffffffffffffffffffffffffffffffffffffffffffffff0383136000831215161561333557613334613003565b5b817f800000000000000000000000000000000000000000000000000000000000000003831260008312161561336d5761336c613003565b5b828201905092915050565b600061338382613246565b91507f7fffffffffffffffffffffffffffffffffffffffffffffffffffffffffffffff82036133b5576133b4613003565b5b60018201905091905056fea264697066735822122033118709ebe03289b7bef4676774f1e992a20e87a5b956b3dba7cedd92affc2764736f6c634300080d0033",
  "immutableReferences": {},
  "source": "// SPDX-License-Identifier: GPL-3.0\npragma solidity ^0.8.10;\n\ncontract Timestamping {\n    address owner; // contract owner\n     // each customer can have a stamp pending order\n    mapping (string => order) orders;\n    mapping (address => uint) stampers;\n    address[] stampersList;\n    mapping (address => uint) balance;\n    \n    uint lastRequest = 0; // records the time of the last request. is used to prevent providers from unlinking before the stamp is finalized \n    uint bail = 1000000000000000000;// value of caucao em wei -> 1 Ether\n    uint minimumProviders = 3; // minimum number of providers for the stamp to be valid\n    uint rewardWindow = 10;// 20 seconds\n    uint commitmentWindow = 16; // commitment and decommitment window\n    uint minimumDeposit = 10000000000000000; // minimum stamp value in wei -> 0.01 Ether\n    uint commitmentsLimit = 10;// commitment limit\n    uint reimburseRequester = 10000000000000000; // refund amount in wei to the requester -> 0.001 Ether\n    uint reimburseProvider = 1000000000000000;// refund amount in wei for participating providers -> 0.0001 Ether\n    \n   /* Debug variables */\n    bytes32 byt;\n    address addr;\n    uint uin;\n\n    constructor()  {\n        owner = msg.sender;\n    }\n\n    struct order {\n        address[] stampers;\n        bytes32[] commitments;\n        uint[] times; // need in seconds\n        address requester;\n        uint t1;\n        uint t2;\n        uint t3;\n        uint deposit;\n        uint timestamp;\n        uint status; // 0 - not finished, 1 - successfully finished, 2 - unsuccessfully finished\n    }\n    \n    modifier onlyOwner() {\n        require(owner == msg.sender);\n        _;\n    }\n    \n    modifier commitmentsRestrictions(string memory data) {\n        require(stampers[msg.sender] == 1);\n        require(orders[data].commitments.length < commitmentsLimit);\n        _;\n    }\n    \n    modifier requestRestrictions() {\n        require(msg.value >= minimumDeposit); \n        _;\n    }\n\n    modifier revealRetrictions(string memory data) {\n        require(stampers[msg.sender] == 1);\n        require(isRevealInterval(data) == 1);\n        _;\n    }\n    \n    modifier selectRestrictions(string memory data) {\n        require(orders[data].requester == msg.sender);\n        require(isSelectStampInterval(data) == 1);\n        _;\n    }\n    \n    modifier withdrawalRestricion() {\n        require(lastRequest + 48 < block.number);\n        _;\n    }\n\n    event Datasender(string _data,uint _t2,uint _t3);\n\n/* User says he wants to stamp something */\n    function requestTimestamp(string memory data) public payable requestRestrictions {\n        orders[data].requester = msg.sender;\n        orders[data].t1 = block.timestamp;\n        orders[data].t2 = orders[data].t1 + 16;\n        orders[data].t3 = orders[data].t2 + 16;\n        orders[data].deposit = msg.value;\n        orders[data].status = 0;\n        lastRequest = block.number;\n        emit Datasender(data, orders[data].t2, orders[data].t3);\n    }\n\n/* Provider registers for the service */\n    function joinStamper() public payable {\n        bool flag = true;\n        for (uint i = 0; i < stampersList.length; i++) {\n            if (stampersList[i] == msg.sender) {\n                flag = false;\n                break;\n            }\n        }\n        if (flag) {\n            stampersList.push(msg.sender);\n        }\n        balance[msg.sender] += msg.value;\n        if (balance[msg.sender] >= bail) {\n            stampers[msg.sender] = 1;\n        }\n    }\n/* Provider sends commitment to 'data' before time T2 */\n    function sendCommitment(string memory data, bytes32 commitment) public commitmentsRestrictions(data) {\n        orders[data].stampers.push(msg.sender);\n        orders[data].commitments.push(commitment);\n    }\n    \n/* Provider releases commitment for 'data' between time T2 and T3 */\n    function revealCommitment(string memory data, uint time, uint nonce) public revealRetrictions(data) {\n        for (uint i = 0; i < orders[data].stampers.length; i++) {\n            if (orders[data].stampers[i] == msg.sender){\n                if (keccak256(abi.encodePacked(data,time,nonce)) == orders[data].commitments[i]) {\n                    orders[data].commitments[i] = bytes32(time);\n                    orders[data].times.push(time);\n                }\n                \n                break;\n            }\n        }\n    }\n\n\n  \n/* User requests stamp after time T3 */\n    function selectStampRequester(string memory data) public selectRestrictions(data) {\n        if (orders[data].times.length < minimumProviders) {\n            reimburse(data);\n            orders[data].status = 2;\n        } else {\n            sortArray(data);\n            uint first = 0;\n            uint last = orders[data].times.length-1;\n            uint median = (orders[data].times.length-1)/2;\n            for (uint i = 0; i < orders[data].times.length; i++) {\n                if (orders[data].times[i] < orders[data].times[median] - rewardWindow) {\n                    first += 1;\n                } else if (orders[data].times[i] > orders[data].times[median] + rewardWindow) {\n                    last = i-1;\n                    break;\n                }\n            }\n            if (last - first + 1 < minimumProviders) {\n                reimburse(data);\n                orders[data].status = 2;\n            } else {\n                orders[data].timestamp = orders[data].times[first];\n                reward(data, first, last);\n                orders[data].status = 1;\n            }\n        }\n        delete orders[data].stampers;\n        delete orders[data].commitments;\n        delete orders[data].times;\n        delete orders[data].t1;\n        delete orders[data].t2;\n        delete orders[data].t3;\n        delete orders[data].deposit;\n    }\n    \n    \n   \n/* Query functions after stamp completion */\n    function getTimestamp(string memory data) public view returns(uint) {\n        return orders[data].timestamp;\n    }\n    \n    function getRequester(string memory data) public view returns(address) {\n        return orders[data].requester;\n    }\n\n \n/* Helper sort functions */\n    function sortArray(string memory data) internal {\n        quicksort(data, 0, int(orders[data].times.length-1));\n    }\n    \n    function quicksort(string memory data, int low, int high) internal {\n        if (low < high) {\n            int split = partition(data, low, high);\n        require(owner == msg.sender);\n            quicksort(data, low, split-1);\n            quicksort(data, split+1, high);\n        }\n    }\n    \n    function partition(string memory data, int low, int high) internal returns(int) {\n        int i = low - 1;\n        uint troca ;\n        for (int j = low; j < high; j++) {\n            if (orders[data].times[uint(j)] <= orders[data].times[uint(high)]) {\n                i++;\n                 troca = orders[data].times[uint(i)];\n                orders[data].times[uint(i)] = orders[data].times[uint(j)];\n                orders[data].times[uint(j)] = troca;\n            }\n        }\n         troca = orders[data].times[uint(i+1)];\n        orders[data].times[uint(i+1)] = orders[data].times[uint(high)];\n        orders[data].times[uint(high)] = troca;\n        return i+1;\n    }\n    \n   /* Auxiliary query functions */\n    function isCommitmentInterval(string memory data) public view returns(uint) {\n        if ((block.timestamp < orders[data].t2 || orders[data].t1 == 0) && orders[data].status == 0)\n            return 1;\n        return 0;\n    }\n    \n    function isRevealInterval(string memory data) public view returns(uint) {\n        if (block.timestamp >= orders[data].t2 && block.timestamp < orders[data].t3)\n            return 1;\n        return 0;\n    }\n    \n    function isSelectStampInterval(string memory data) public view returns(uint) {\n        if (block.timestamp >= orders[data].t3 && orders[data].t3 != 0)\n            return 1;\n        return 0;\n    }\n    \n    function blockNumber() public view returns(uint) {\n        return block.number;\n    }\n    \n    function getOrderT1(string memory data) public view returns(uint) {\n        return orders[data].t1;\n    }\n    \n    function getOrderT2(string memory data) public view returns(uint) {\n        return orders[data].t2;\n    }\n    \n    function getOrderT3(string memory data) public view returns(uint) {\n        return orders[data].t3;\n    }\n       \n    \n    function getOrderDeposit(string memory data) public view returns(uint) {\n        return orders[data].deposit;\n    }\n    \n    function getStatus(string memory data) public view returns(uint) {\n        return orders[data].status;\n    }\n    \n    function getStampers() public view returns(address [] memory ){\n        return stampersList;\n    }\n    \n/* Configuration area */\n\n\n    function setBail(uint value) public onlyOwner {\n        bail = value;\n    }\n\n\n    function setMinimumProviders(uint value) public onlyOwner {\n        minimumProviders = value;\n    }\n    \n\n\n    function setRewardWindow(uint value) public onlyOwner {\n        rewardWindow = value;\n    }\n    \n\n    function setCommitmentWindow(uint value) public onlyOwner {\n        commitmentWindow = value;\n    }\n    \n\n\n    function setMinimumDeposit(uint value) public onlyOwner {\n        minimumDeposit = value;\n    }\n\n\n\n    function setCommitmentsLimit(uint value) public onlyOwner {\n        commitmentsLimit = value;\n    }\n    \n \n\n    function setReimburseRequester(uint value) public onlyOwner {\n        reimburseRequester = value;\n    }\n\n    function setReimburseProvider(uint value) public onlyOwner {\n        reimburseProvider = value;\n    }\n\n/* Financial area */\n\n  \n    function withdrawalAndContinue() public payable  withdrawalRestricion {\n        if (balance[msg.sender] > bail) {\n           payable(msg.sender).transfer(balance[msg.sender] - bail);\n            balance[msg.sender] = bail;\n        }\n    }\n    \n\n\n    function withdrawalAll() public payable withdrawalRestricion {\n       payable( msg.sender).transfer(balance[msg.sender]);\n        balance[msg.sender] = 0;\n        stampers[msg.sender] = 0;\n    }\n    \n\n    function getBalance() public view returns(uint) {\n        return balance[msg.sender];\n    }\n    \n   \n// Function to reimburse the applicant and the providers that participated\n    function reimburse(string memory data) internal {\n       // Number of providers that participated\n        uint providers = orders[data].stampers.length;\n        \n       // Counts the number of active contributors\n        uint collaborators = 0;\n        for (uint i = 0; i < stampersList.length; i++) {\n            if (stampers[stampersList[i]] == 1) {\n                collaborators++;\n            }\n        }\n        collaborators -= providers;\n        \n        if (collaborators > 0) {\n            // Collects contributions from each employee, including participants\n            uint collaborationValue = (reimburseRequester + providers * reimburseProvider)/collaborators;\n            for (uint i = 0; i < stampersList.length; i++) {\n                if (stampers[stampersList[i]] == 1) {\n                    balance[stampersList[i]] -= collaborationValue;\n                }\n            }\n            \n            \n// Refund participants\n            for (uint i = 0; i < orders[data].stampers.length; i++) {\n                balance[orders[data].stampers[i]] += (collaborationValue + reimburseProvider);\n            }\n            \n            \n// Reimburse the applicant the value of the stamp + collaboration\n            balance[orders[data].requester] += (orders[data].deposit + reimburseRequester);\n        } else {\n           \n// Refunds the applicant the stamp value\n            balance[orders[data].requester] += orders[data].deposit;\n        }\n    }\n    \n    \n// Function to distribute reward\n    function reward(string memory data, uint first, uint last) internal {\n       \n        uint rewardValue = orders[data].deposit/(last - first + 1);\n        for (uint i = first; i <= last; i++) {\n            for (uint j = 0; j < orders[data].commitments.length; j++) {\n                if (orders[data].commitments[j] == bytes32(orders[data].times[i])) {\n                    balance[orders[data].stampers[j]] += rewardValue;\n                }        \n            }\n        }\n    }\n    \n\n\n/* Debug functions */\n    \n    function getOrderStampTimes(string memory data) public view returns(uint[] memory) {\n        return orders[data].times;\n    }\n\n    function getByt() public view returns(bytes32) {\n        return byt;\n    }\n    \n    function getAddr() public view returns(address) {\n        return addr;   \n    }\n\n    function getUin() public view returns(uint) {\n        return uin;\n    }\n\n    function getBalanceThis() public view returns(uint) {\n        return address(this).balance;\n    }\n}",
  "sourcePath": "/home/monster007/Desktop/blockchain-project/contracts/Timestamping.sol",
  "compiler": {
    "name": "solc",
    "version": "0.8.13+commit.abaa5c0e.Emscripten.clang"
  },
  "schemaVersion": "3.4.5",
  "updatedAt": "2022-04-23T19:17:58.613Z",
  "networkType": "ethereum",
  "devdoc": {
    "kind": "dev",
    "methods": {},
    "version": 1
  },
  "userdoc": {
    "kind": "user",
    "methods": {},
    "version": 1
  }
}