{
  "contractName": "Timestamping",
  "abi": [
    {
      "inputs": [],
      "stateMutability": "nonpayable",
      "type": "constructor"
    },
    {
      "anonymous": false,
      "inputs": [
        {
          "indexed": false,
          "internalType": "string",
          "name": "_data",
          "type": "string"
        },
        {
          "indexed": false,
          "internalType": "uint256",
          "name": "_t2",
          "type": "uint256"
        },
        {
          "indexed": false,
          "internalType": "uint256",
          "name": "_t3",
          "type": "uint256"
        }
      ],
      "name": "Datasender",
      "type": "event"
    },
    {
      "inputs": [
        {
          "internalType": "string",
          "name": "data",
          "type": "string"
        }
      ],
      "name": "requestTimestamp",
      "outputs": [],
      "stateMutability": "payable",
      "type": "function",
      "payable": true
    },
    {
      "inputs": [],
      "name": "joinStamper",
      "outputs": [],
      "stateMutability": "payable",
      "type": "function",
      "payable": true
    },
    {
      "inputs": [
        {
          "internalType": "string",
          "name": "data",
          "type": "string"
        },
        {
          "internalType": "bytes32",
          "name": "commitment",
          "type": "bytes32"
        }
      ],
      "name": "sendCommitment",
      "outputs": [],
      "stateMutability": "nonpayable",
      "type": "function"
    },
    {
      "inputs": [
        {
          "internalType": "string",
          "name": "data",
          "type": "string"
        },
        {
          "internalType": "uint256",
          "name": "time",
          "type": "uint256"
        },
        {
          "internalType": "uint256",
          "name": "nonce",
          "type": "uint256"
        }
      ],
      "name": "revealCommitment",
      "outputs": [],
      "stateMutability": "nonpayable",
      "type": "function"
    },
    {
      "inputs": [
        {
          "internalType": "string",
          "name": "data",
          "type": "string"
        }
      ],
      "name": "selectStampRequester",
      "outputs": [],
      "stateMutability": "nonpayable",
      "type": "function"
    },
    {
      "inputs": [
        {
          "internalType": "string",
          "name": "data",
          "type": "string"
        }
      ],
      "name": "getTimestamp",
      "outputs": [
        {
          "internalType": "uint256",
          "name": "",
          "type": "uint256"
        }
      ],
      "stateMutability": "view",
      "type": "function",
      "constant": true
    },
    {
      "inputs": [
        {
          "internalType": "string",
          "name": "data",
          "type": "string"
        }
      ],
      "name": "getRequester",
      "outputs": [
        {
          "internalType": "address",
          "name": "",
          "type": "address"
        }
      ],
      "stateMutability": "view",
      "type": "function",
      "constant": true
    },
    {
      "inputs": [
        {
          "internalType": "string",
          "name": "data",
          "type": "string"
        }
      ],
      "name": "isCommitmentInterval",
      "outputs": [
        {
          "internalType": "uint256",
          "name": "",
          "type": "uint256"
        }
      ],
      "stateMutability": "view",
      "type": "function",
      "constant": true
    },
    {
      "inputs": [
        {
          "internalType": "string",
          "name": "data",
          "type": "string"
        }
      ],
      "name": "isRevealInterval",
      "outputs": [
        {
          "internalType": "uint256",
          "name": "",
          "type": "uint256"
        }
      ],
      "stateMutability": "view",
      "type": "function",
      "constant": true
    },
    {
      "inputs": [
        {
          "internalType": "string",
          "name": "data",
          "type": "string"
        }
      ],
      "name": "isSelectStampInterval",
      "outputs": [
        {
          "internalType": "uint256",
          "name": "",
          "type": "uint256"
        }
      ],
      "stateMutability": "view",
      "type": "function",
      "constant": true
    },
    {
      "inputs": [],
      "name": "blockNumber",
      "outputs": [
        {
          "internalType": "uint256",
          "name": "",
          "type": "uint256"
        }
      ],
      "stateMutability": "view",
      "type": "function",
      "constant": true
    },
    {
      "inputs": [
        {
          "internalType": "string",
          "name": "data",
          "type": "string"
        }
      ],
      "name": "getOrderT1",
      "outputs": [
        {
          "internalType": "uint256",
          "name": "",
          "type": "uint256"
        }
      ],
      "stateMutability": "view",
      "type": "function",
      "constant": true
    },
    {
      "inputs": [
        {
          "internalType": "string",
          "name": "data",
          "type": "string"
        }
      ],
      "name": "getOrderT2",
      "outputs": [
        {
          "internalType": "uint256",
          "name": "",
          "type": "uint256"
        }
      ],
      "stateMutability": "view",
      "type": "function",
      "constant": true
    },
    {
      "inputs": [
        {
          "internalType": "string",
          "name": "data",
          "type": "string"
        }
      ],
      "name": "getOrderT3",
      "outputs": [
        {
          "internalType": "uint256",
          "name": "",
          "type": "uint256"
        }
      ],
      "stateMutability": "view",
      "type": "function",
      "constant": true
    },
    {
      "inputs": [
        {
          "internalType": "string",
          "name": "data",
          "type": "string"
        }
      ],
      "name": "getOrderDeposit",
      "outputs": [
        {
          "internalType": "uint256",
          "name": "",
          "type": "uint256"
        }
      ],
      "stateMutability": "view",
      "type": "function",
      "constant": true
    },
    {
      "inputs": [
        {
          "internalType": "string",
          "name": "data",
          "type": "string"
        }
      ],
      "name": "getStatus",
      "outputs": [
        {
          "internalType": "uint256",
          "name": "",
          "type": "uint256"
        }
      ],
      "stateMutability": "view",
      "type": "function",
      "constant": true
    },
    {
      "inputs": [],
      "name": "getStampers",
      "outputs": [
        {
          "internalType": "address[]",
          "name": "",
          "type": "address[]"
        }
      ],
      "stateMutability": "view",
      "type": "function",
      "constant": true
    },
    {
      "inputs": [],
      "name": "getFilehash",
      "outputs": [
        {
          "internalType": "string",
          "name": "",
          "type": "string"
        }
      ],
      "stateMutability": "view",
      "type": "function",
      "constant": true
    },
    {
      "inputs": [],
      "name": "getState1",
      "outputs": [
        {
          "internalType": "uint256",
          "name": "",
          "type": "uint256"
        }
      ],
      "stateMutability": "view",
      "type": "function",
      "constant": true
    },
    {
      "inputs": [],
      "name": "getState2",
      "outputs": [
        {
          "internalType": "uint256",
          "name": "",
          "type": "uint256"
        }
      ],
      "stateMutability": "view",
      "type": "function",
      "constant": true
    },
    {
      "inputs": [
        {
          "internalType": "uint256",
          "name": "value",
          "type": "uint256"
        }
      ],
      "name": "setBail",
      "outputs": [],
      "stateMutability": "nonpayable",
      "type": "function"
    },
    {
      "inputs": [
        {
          "internalType": "uint256",
          "name": "value",
          "type": "uint256"
        }
      ],
      "name": "setMinimumProviders",
      "outputs": [],
      "stateMutability": "nonpayable",
      "type": "function"
    },
    {
      "inputs": [
        {
          "internalType": "uint256",
          "name": "value",
          "type": "uint256"
        }
      ],
      "name": "setRewardWindow",
      "outputs": [],
      "stateMutability": "nonpayable",
      "type": "function"
    },
    {
      "inputs": [
        {
          "internalType": "uint256",
          "name": "value",
          "type": "uint256"
        }
      ],
      "name": "setCommitmentWindow",
      "outputs": [],
      "stateMutability": "nonpayable",
      "type": "function"
    },
    {
      "inputs": [
        {
          "internalType": "uint256",
          "name": "value",
          "type": "uint256"
        }
      ],
      "name": "setMinimumDeposit",
      "outputs": [],
      "stateMutability": "nonpayable",
      "type": "function"
    },
    {
      "inputs": [
        {
          "internalType": "uint256",
          "name": "value",
          "type": "uint256"
        }
      ],
      "name": "setCommitmentsLimit",
      "outputs": [],
      "stateMutability": "nonpayable",
      "type": "function"
    },
    {
      "inputs": [
        {
          "internalType": "uint256",
          "name": "value",
          "type": "uint256"
        }
      ],
      "name": "setReimburseRequester",
      "outputs": [],
      "stateMutability": "nonpayable",
      "type": "function"
    },
    {
      "inputs": [
        {
          "internalType": "uint256",
          "name": "value",
          "type": "uint256"
        }
      ],
      "name": "setReimburseProvider",
      "outputs": [],
      "stateMutability": "nonpayable",
      "type": "function"
    },
    {
      "inputs": [],
      "name": "withdrawalAndContinue",
      "outputs": [],
      "stateMutability": "payable",
      "type": "function",
      "payable": true
    },
    {
      "inputs": [],
      "name": "withdrawalAll",
      "outputs": [],
      "stateMutability": "payable",
      "type": "function",
      "payable": true
    },
    {
      "inputs": [],
      "name": "getBalance",
      "outputs": [
        {
          "internalType": "uint256",
          "name": "",
          "type": "uint256"
        }
      ],
      "stateMutability": "view",
      "type": "function",
      "constant": true
    },
    {
      "inputs": [
        {
          "internalType": "string",
          "name": "data",
          "type": "string"
        }
      ],
      "name": "getOrderStampTimes",
      "outputs": [
        {
          "internalType": "uint256[]",
          "name": "",
          "type": "uint256[]"
        }
      ],
      "stateMutability": "view",
      "type": "function",
      "constant": true
    },
    {
      "inputs": [],
      "name": "getByt",
      "outputs": [
        {
          "internalType": "bytes32",
          "name": "",
          "type": "bytes32"
        }
      ],
      "stateMutability": "view",
      "type": "function",
      "constant": true
    },
    {
      "inputs": [],
      "name": "getAddr",
      "outputs": [
        {
          "internalType": "address",
          "name": "",
          "type": "address"
        }
      ],
      "stateMutability": "view",
      "type": "function",
      "constant": true
    },
    {
      "inputs": [],
      "name": "getUin",
      "outputs": [
        {
          "internalType": "uint256",
          "name": "",
          "type": "uint256"
        }
      ],
      "stateMutability": "view",
      "type": "function",
      "constant": true
    },
    {
      "inputs": [],
      "name": "getBalanceThis",
      "outputs": [
        {
          "internalType": "uint256",
          "name": "",
          "type": "uint256"
        }
      ],
      "stateMutability": "view",
      "type": "function",
      "constant": true
    }
  ],
  "bytecode": "0x6080604052600060015560006002556000600855670de0b6b3a76400006009556003600a55600a600b556010600c55662386f26fc10000600d55600a600e55662386f26fc10000600f5566038d7ea4c6800060105534801561006057600080fd5b5033600360006101000a81548173ffffffffffffffffffffffffffffffffffffffff021916908373ffffffffffffffffffffffffffffffffffffffff160217905550612cbf806100b16000396000f3fe60806040526004361061020f5760003560e01c80637db68cc111610118578063a8cefefa116100a0578063d35fa8c01161006f578063d35fa8c01461079c578063d95806d2146107c5578063e78ec42e14610802578063ef35bcce1461082b578063f44b79b3146108545761020f565b8063a8cefefa146106f1578063aef62df31461071a578063b59dc67b14610757578063b878e1b0146107805761020f565b806388a4eee8116100e757806388a4eee81461062057806394deaac01461064b5780639a540ace14610674578063a74c2bb61461069d578063a7873d42146106c85761020f565b80637db68cc1146105835780637f19dc77146105ae5780637f277e37146105b85780638484485d146105f55761020f565b80633fd289511161019b5780635eb5c5df1161016a5780635eb5c5df146104765780636716de77146104a15780636f05e791146104de5780637a7aa5711461051b5780637b3660ee146105465761020f565b80633fd28951146103a6578063474cb928146103d157806357e871e71461040e5780635d10e4e4146104395761020f565b806322b05ed2116101e257806322b05ed2146102af57806332e5e595146102ec57806334976699146103295780633550e459146103545780633ef4a9021461037d5761020f565b806312065fe014610214578063130ed8c51461023f5780631b20b36d14610268578063205945f314610272575b600080fd5b34801561022057600080fd5b5061022961085e565b604051610236919061234c565b60405180910390f35b34801561024b57600080fd5b50610266600480360381019061026191906124ed565b6108a5565b005b610270610ae9565b005b34801561027e57600080fd5b506102996004803603810190610294919061255c565b610cde565b6040516102a69190612663565b60405180910390f35b3480156102bb57600080fd5b506102d660048036038101906102d1919061255c565b610d57565b6040516102e3919061234c565b60405180910390f35b3480156102f857600080fd5b50610313600480360381019061030e919061255c565b610d82565b604051610320919061234c565b60405180910390f35b34801561033557600080fd5b5061033e610dad565b60405161034b9190612775565b60405180910390f35b34801561036057600080fd5b5061037b60048036038101906103769190612797565b610e3b565b005b34801561038957600080fd5b506103a4600480360381019061039f919061255c565b610e9f565b005b3480156103b257600080fd5b506103bb6110e7565b6040516103c8919061234c565b60405180910390f35b3480156103dd57600080fd5b506103f860048036038101906103f3919061255c565b6110f1565b604051610405919061234c565b60405180910390f35b34801561041a57600080fd5b5061042361111c565b604051610430919061234c565b60405180910390f35b34801561044557600080fd5b50610460600480360381019061045b919061255c565b611124565b60405161046d919061234c565b60405180910390f35b34801561048257600080fd5b5061048b61114f565b604051610498919061234c565b60405180910390f35b3480156104ad57600080fd5b506104c860048036038101906104c3919061255c565b611159565b6040516104d5919061234c565b60405180910390f35b3480156104ea57600080fd5b506105056004803603810190610500919061255c565b6111c6565b604051610512919061234c565b60405180910390f35b34801561052757600080fd5b506105306111f1565b60405161053d91906127dd565b60405180910390f35b34801561055257600080fd5b5061056d6004803603810190610568919061255c565b6111fb565b60405161057a919061234c565b60405180910390f35b34801561058f57600080fd5b50610598611292565b6040516105a5919061234c565b60405180910390f35b6105b661129c565b005b3480156105c457600080fd5b506105df60048036038101906105da919061255c565b6113db565b6040516105ec9190612807565b60405180910390f35b34801561060157600080fd5b5061060a611426565b604051610617919061234c565b60405180910390f35b34801561062c57600080fd5b5061063561142e565b60405161064291906128aa565b60405180910390f35b34801561065757600080fd5b50610672600480360381019061066d9190612797565b6114c0565b005b34801561068057600080fd5b5061069b60048036038101906106969190612797565b611524565b005b3480156106a957600080fd5b506106b2611588565b6040516106bf9190612807565b60405180910390f35b3480156106d457600080fd5b506106ef60048036038101906106ea9190612797565b6115b2565b005b3480156106fd57600080fd5b50610718600480360381019061071391906128f8565b611616565b005b34801561072657600080fd5b50610741600480360381019061073c919061255c565b611764565b60405161074e919061234c565b60405180910390f35b34801561076357600080fd5b5061077e60048036038101906107799190612797565b6117cf565b005b61079a6004803603810190610795919061255c565b611833565b005b3480156107a857600080fd5b506107c360048036038101906107be9190612797565b611a60565b005b3480156107d157600080fd5b506107ec60048036038101906107e7919061255c565b611ac4565b6040516107f9919061234c565b60405180910390f35b34801561080e57600080fd5b5061082960048036038101906108249190612797565b611aef565b005b34801561083757600080fd5b50610852600480360381019061084d9190612797565b611b53565b005b61085c611bb7565b005b6000600760003373ffffffffffffffffffffffffffffffffffffffff1673ffffffffffffffffffffffffffffffffffffffff16815260200190815260200160002054905090565b826001600560003373ffffffffffffffffffffffffffffffffffffffff1673ffffffffffffffffffffffffffffffffffffffff16815260200190815260200160002054146108f257600080fd5b60016108fd82611764565b1461090757600080fd5b60005b60048560405161091a9190612990565b908152602001604051809103902060000180549050811015610ae2573373ffffffffffffffffffffffffffffffffffffffff1660048660405161095d9190612990565b908152602001604051809103902060000182815481106109805761097f6129a7565b5b9060005260206000200160009054906101000a900473ffffffffffffffffffffffffffffffffffffffff1673ffffffffffffffffffffffffffffffffffffffff1603610acf576004856040516109d69190612990565b908152602001604051809103902060010181815481106109f9576109f86129a7565b5b9060005260206000200154858585604051602001610a19939291906129f7565b6040516020818303038152906040528051906020012003610aca578360001b600486604051610a489190612990565b90815260200160405180910390206001018281548110610a6b57610a6a6129a7565b5b9060005260206000200181905550600485604051610a899190612990565b908152602001604051809103902060020184908060018154018082558091505060019003906000526020600020016000909190919091505560016002819055505b610ae2565b8080610ada90612a5f565b91505061090a565b5050505050565b60006001905060005b600680549050811015610b8c573373ffffffffffffffffffffffffffffffffffffffff1660068281548110610b2a57610b296129a7565b5b9060005260206000200160009054906101000a900473ffffffffffffffffffffffffffffffffffffffff1673ffffffffffffffffffffffffffffffffffffffff1603610b795760009150610b8c565b8080610b8490612a5f565b915050610af2565b508015610bf7576006339080600181540180825580915050600190039060005260206000200160009091909190916101000a81548173ffffffffffffffffffffffffffffffffffffffff021916908373ffffffffffffffffffffffffffffffffffffffff1602179055505b34600760003373ffffffffffffffffffffffffffffffffffffffff1673ffffffffffffffffffffffffffffffffffffffff1681526020019081526020016000206000828254610c469190612aa7565b92505081905550600954600760003373ffffffffffffffffffffffffffffffffffffffff1673ffffffffffffffffffffffffffffffffffffffff1681526020019081526020016000205410610cdb576001600560003373ffffffffffffffffffffffffffffffffffffffff1673ffffffffffffffffffffffffffffffffffffffff168152602001908152602001600020819055505b50565b6060600482604051610cf09190612990565b9081526020016040518091039020600201805480602002602001604051908101604052809291908181526020018280548015610d4b57602002820191906000526020600020905b815481526020019060010190808311610d37575b50505050509050919050565b6000600482604051610d699190612990565b9081526020016040518091039020600901549050919050565b6000600482604051610d949190612990565b9081526020016040518091039020600801549050919050565b60606006805480602002602001604051908101604052809291908181526020018280548015610e3157602002820191906000526020600020905b8160009054906101000a900473ffffffffffffffffffffffffffffffffffffffff1673ffffffffffffffffffffffffffffffffffffffff1681526020019060010190808311610de7575b5050505050905090565b3373ffffffffffffffffffffffffffffffffffffffff16600360009054906101000a900473ffffffffffffffffffffffffffffffffffffffff1673ffffffffffffffffffffffffffffffffffffffff1614610e9557600080fd5b8060098190555050565b6000805b600483604051610eb39190612990565b908152602001604051809103902060020180549050811015610f2d57600483604051610edf9190612990565b90815260200160405180910390206002018181548110610f0257610f016129a7565b5b906000526020600020015482610f189190612aa7565b91508080610f2590612a5f565b915050610ea3565b50600482604051610f3e9190612990565b90815260200160405180910390206002018054905081610f5e9190612b2c565b600483604051610f6e9190612990565b908152602001604051809103902060080181905550610f8c82611ce3565b6001600483604051610f9e9190612990565b908152602001604051809103902060090181905550600482604051610fc39190612990565b90815260200160405180910390206000016000610fe091906121d0565b600482604051610ff09190612990565b9081526020016040518091039020600101600061100d91906121f1565b60048260405161101d9190612990565b9081526020016040518091039020600201600061103a9190612212565b60048260405161104a9190612990565b90815260200160405180910390206004016000905560048260405161106f9190612990565b9081526020016040518091039020600501600090556004826040516110949190612990565b9081526020016040518091039020600601600090556004826040516110b99190612990565b9081526020016040518091039020600701600090556000806110db9190612233565b60006001819055505050565b6000600254905090565b60006004826040516111039190612990565b9081526020016040518091039020600601549050919050565b600043905090565b60006004826040516111369190612990565b9081526020016040518091039020600701549050919050565b6000600154905090565b600060048260405161116b9190612990565b90815260200160405180910390206006015442101580156111ae575060006004836040516111999190612990565b90815260200160405180910390206006015414155b156111bc57600190506111c1565b600090505b919050565b60006004826040516111d89190612990565b9081526020016040518091039020600401549050919050565b6000601154905090565b600060048260405161120d9190612990565b90815260200160405180910390206005015442108061124d575060006004836040516112399190612990565b908152602001604051809103902060040154145b801561127a575060006004836040516112669190612990565b908152602001604051809103902060090154145b15611288576001905061128d565b600090505b919050565b6000601354905090565b4360306008546112ac9190612aa7565b106112b657600080fd5b600954600760003373ffffffffffffffffffffffffffffffffffffffff1673ffffffffffffffffffffffffffffffffffffffff1681526020019081526020016000205411156113d9573373ffffffffffffffffffffffffffffffffffffffff166108fc600954600760003373ffffffffffffffffffffffffffffffffffffffff1673ffffffffffffffffffffffffffffffffffffffff168152602001908152602001600020546113669190612b5d565b9081150290604051600060405180830381858888f19350505050158015611391573d6000803e3d6000fd5b50600954600760003373ffffffffffffffffffffffffffffffffffffffff1673ffffffffffffffffffffffffffffffffffffffff168152602001908152602001600020819055505b565b60006004826040516113ed9190612990565b908152602001604051809103902060030160009054906101000a900473ffffffffffffffffffffffffffffffffffffffff169050919050565b600047905090565b60606000805461143d90612bc0565b80601f016020809104026020016040519081016040528092919081815260200182805461146990612bc0565b80156114b65780601f1061148b576101008083540402835291602001916114b6565b820191906000526020600020905b81548152906001019060200180831161149957829003601f168201915b5050505050905090565b3373ffffffffffffffffffffffffffffffffffffffff16600360009054906101000a900473ffffffffffffffffffffffffffffffffffffffff1673ffffffffffffffffffffffffffffffffffffffff161461151a57600080fd5b80600e8190555050565b3373ffffffffffffffffffffffffffffffffffffffff16600360009054906101000a900473ffffffffffffffffffffffffffffffffffffffff1673ffffffffffffffffffffffffffffffffffffffff161461157e57600080fd5b80600b8190555050565b6000601260009054906101000a900473ffffffffffffffffffffffffffffffffffffffff16905090565b3373ffffffffffffffffffffffffffffffffffffffff16600360009054906101000a900473ffffffffffffffffffffffffffffffffffffffff1673ffffffffffffffffffffffffffffffffffffffff161461160c57600080fd5b8060108190555050565b816001600560003373ffffffffffffffffffffffffffffffffffffffff1673ffffffffffffffffffffffffffffffffffffffff168152602001908152602001600020541461166357600080fd5b600e546004826040516116769190612990565b9081526020016040518091039020600101805490501061169557600080fd5b6004836040516116a59190612990565b9081526020016040518091039020600001339080600181540180825580915050600190039060005260206000200160009091909190916101000a81548173ffffffffffffffffffffffffffffffffffffffff021916908373ffffffffffffffffffffffffffffffffffffffff1602179055506004836040516117279190612990565b9081526020016040518091039020600101829080600181540180825580915050600190039060005260206000200160009091909190915055505050565b60006004826040516117769190612990565b90815260200160405180910390206005015442101580156117b757506004826040516117a29190612990565b90815260200160405180910390206006015442105b156117c557600190506117ca565b600090505b919050565b3373ffffffffffffffffffffffffffffffffffffffff16600360009054906101000a900473ffffffffffffffffffffffffffffffffffffffff1673ffffffffffffffffffffffffffffffffffffffff161461182957600080fd5b80600f8190555050565b600d5434101561184257600080fd5b8060009080519060200190611858929190612273565b5060018081905550336004826040516118719190612990565b908152602001604051809103902060030160006101000a81548173ffffffffffffffffffffffffffffffffffffffff021916908373ffffffffffffffffffffffffffffffffffffffff160217905550426004826040516118d19190612990565b908152602001604051809103902060040181905550601e6004826040516118f89190612990565b9081526020016040518091039020600401546119149190612aa7565b6004826040516119249190612990565b908152602001604051809103902060050181905550601e60048260405161194b9190612990565b9081526020016040518091039020600501546119679190612aa7565b6004826040516119779190612990565b9081526020016040518091039020600601819055503460048260405161199d9190612990565b90815260200160405180910390206007018190555060006004826040516119c49190612990565b908152602001604051809103902060090181905550436008819055507f7d10f90c53ce23a4ce167700974297702cb55ccdaac54607c167ccd1e112c5f681600483604051611a129190612990565b908152602001604051809103902060050154600484604051611a349190612990565b908152602001604051809103902060060154604051611a5593929190612bf1565b60405180910390a150565b3373ffffffffffffffffffffffffffffffffffffffff16600360009054906101000a900473ffffffffffffffffffffffffffffffffffffffff1673ffffffffffffffffffffffffffffffffffffffff1614611aba57600080fd5b80600c8190555050565b6000600482604051611ad69190612990565b9081526020016040518091039020600501549050919050565b3373ffffffffffffffffffffffffffffffffffffffff16600360009054906101000a900473ffffffffffffffffffffffffffffffffffffffff1673ffffffffffffffffffffffffffffffffffffffff1614611b4957600080fd5b80600d8190555050565b3373ffffffffffffffffffffffffffffffffffffffff16600360009054906101000a900473ffffffffffffffffffffffffffffffffffffffff1673ffffffffffffffffffffffffffffffffffffffff1614611bad57600080fd5b80600a8190555050565b436030600854611bc79190612aa7565b10611bd157600080fd5b3373ffffffffffffffffffffffffffffffffffffffff166108fc600760003373ffffffffffffffffffffffffffffffffffffffff1673ffffffffffffffffffffffffffffffffffffffff168152602001908152602001600020549081150290604051600060405180830381858888f19350505050158015611c56573d6000803e3d6000fd5b506000600760003373ffffffffffffffffffffffffffffffffffffffff1673ffffffffffffffffffffffffffffffffffffffff168152602001908152602001600020819055506000600560003373ffffffffffffffffffffffffffffffffffffffff1673ffffffffffffffffffffffffffffffffffffffff16815260200190815260200160002081905550565b6000600482604051611cf59190612990565b90815260200160405180910390206000018054905090506000805b600680549050811015611dc45760016005600060068481548110611d3757611d366129a7565b5b9060005260206000200160009054906101000a900473ffffffffffffffffffffffffffffffffffffffff1673ffffffffffffffffffffffffffffffffffffffff1673ffffffffffffffffffffffffffffffffffffffff1681526020019081526020016000205403611db1578180611dad90612a5f565b9250505b8080611dbc90612a5f565b915050611d10565b508181611dd19190612b5d565b905060008111156121125760008160105484611ded9190612c2f565b600f54611dfa9190612aa7565b611e049190612b2c565b905060005b600680549050811015611f435760016005600060068481548110611e3057611e2f6129a7565b5b9060005260206000200160009054906101000a900473ffffffffffffffffffffffffffffffffffffffff1673ffffffffffffffffffffffffffffffffffffffff1673ffffffffffffffffffffffffffffffffffffffff1681526020019081526020016000205403611f3057816007600060068481548110611eb457611eb36129a7565b5b9060005260206000200160009054906101000a900473ffffffffffffffffffffffffffffffffffffffff1673ffffffffffffffffffffffffffffffffffffffff1673ffffffffffffffffffffffffffffffffffffffff1681526020019081526020016000206000828254611f289190612b5d565b925050819055505b8080611f3b90612a5f565b915050611e09565b5060005b600485604051611f579190612990565b9081526020016040518091039020600001805490508110156120465760105482611f819190612aa7565b60076000600488604051611f959190612990565b90815260200160405180910390206000018481548110611fb857611fb76129a7565b5b9060005260206000200160009054906101000a900473ffffffffffffffffffffffffffffffffffffffff1673ffffffffffffffffffffffffffffffffffffffff1673ffffffffffffffffffffffffffffffffffffffff168152602001908152602001600020600082825461202c9190612aa7565b92505081905550808061203e90612a5f565b915050611f47565b50600f5460048560405161205a9190612990565b9081526020016040518091039020600701546120769190612aa7565b6007600060048760405161208a9190612990565b908152602001604051809103902060030160009054906101000a900473ffffffffffffffffffffffffffffffffffffffff1673ffffffffffffffffffffffffffffffffffffffff1673ffffffffffffffffffffffffffffffffffffffff16815260200190815260200160002060008282546121059190612aa7565b92505081905550506121cb565b6004836040516121229190612990565b908152602001604051809103902060070154600760006004866040516121489190612990565b908152602001604051809103902060030160009054906101000a900473ffffffffffffffffffffffffffffffffffffffff1673ffffffffffffffffffffffffffffffffffffffff1673ffffffffffffffffffffffffffffffffffffffff16815260200190815260200160002060008282546121c39190612aa7565b925050819055505b505050565b50805460008255906000526020600020908101906121ee91906122f9565b50565b508054600082559060005260206000209081019061220f9190612316565b50565b508054600082559060005260206000209081019061223091906122f9565b50565b50805461223f90612bc0565b6000825580601f106122515750612270565b601f01602090049060005260206000209081019061226f91906122f9565b5b50565b82805461227f90612bc0565b90600052602060002090601f0160209004810192826122a157600085556122e8565b82601f106122ba57805160ff19168380011785556122e8565b828001600101855582156122e8579182015b828111156122e75782518255916020019190600101906122cc565b5b5090506122f591906122f9565b5090565b5b808211156123125760008160009055506001016122fa565b5090565b5b8082111561232f576000816000905550600101612317565b5090565b6000819050919050565b61234681612333565b82525050565b6000602082019050612361600083018461233d565b92915050565b6000604051905090565b600080fd5b600080fd5b600080fd5b600080fd5b6000601f19601f8301169050919050565b7f4e487b7100000000000000000000000000000000000000000000000000000000600052604160045260246000fd5b6123ce82612385565b810181811067ffffffffffffffff821117156123ed576123ec612396565b5b80604052505050565b6000612400612367565b905061240c82826123c5565b919050565b600067ffffffffffffffff82111561242c5761242b612396565b5b61243582612385565b9050602081019050919050565b82818337600083830152505050565b600061246461245f84612411565b6123f6565b9050828152602081018484840111156124805761247f612380565b5b61248b848285612442565b509392505050565b600082601f8301126124a8576124a761237b565b5b81356124b8848260208601612451565b91505092915050565b6124ca81612333565b81146124d557600080fd5b50565b6000813590506124e7816124c1565b92915050565b60008060006060848603121561250657612505612371565b5b600084013567ffffffffffffffff81111561252457612523612376565b5b61253086828701612493565b9350506020612541868287016124d8565b9250506040612552868287016124d8565b9150509250925092565b60006020828403121561257257612571612371565b5b600082013567ffffffffffffffff8111156125905761258f612376565b5b61259c84828501612493565b91505092915050565b600081519050919050565b600082825260208201905092915050565b6000819050602082019050919050565b6125da81612333565b82525050565b60006125ec83836125d1565b60208301905092915050565b6000602082019050919050565b6000612610826125a5565b61261a81856125b0565b9350612625836125c1565b8060005b8381101561265657815161263d88826125e0565b9750612648836125f8565b925050600181019050612629565b5085935050505092915050565b6000602082019050818103600083015261267d8184612605565b905092915050565b600081519050919050565b600082825260208201905092915050565b6000819050602082019050919050565b600073ffffffffffffffffffffffffffffffffffffffff82169050919050565b60006126dc826126b1565b9050919050565b6126ec816126d1565b82525050565b60006126fe83836126e3565b60208301905092915050565b6000602082019050919050565b600061272282612685565b61272c8185612690565b9350612737836126a1565b8060005b8381101561276857815161274f88826126f2565b975061275a8361270a565b92505060018101905061273b565b5085935050505092915050565b6000602082019050818103600083015261278f8184612717565b905092915050565b6000602082840312156127ad576127ac612371565b5b60006127bb848285016124d8565b91505092915050565b6000819050919050565b6127d7816127c4565b82525050565b60006020820190506127f260008301846127ce565b92915050565b612801816126d1565b82525050565b600060208201905061281c60008301846127f8565b92915050565b600081519050919050565b600082825260208201905092915050565b60005b8381101561285c578082015181840152602081019050612841565b8381111561286b576000848401525b50505050565b600061287c82612822565b612886818561282d565b935061289681856020860161283e565b61289f81612385565b840191505092915050565b600060208201905081810360008301526128c48184612871565b905092915050565b6128d5816127c4565b81146128e057600080fd5b50565b6000813590506128f2816128cc565b92915050565b6000806040838503121561290f5761290e612371565b5b600083013567ffffffffffffffff81111561292d5761292c612376565b5b61293985828601612493565b925050602061294a858286016128e3565b9150509250929050565b600081905092915050565b600061296a82612822565b6129748185612954565b935061298481856020860161283e565b80840191505092915050565b600061299c828461295f565b915081905092915050565b7f4e487b7100000000000000000000000000000000000000000000000000000000600052603260045260246000fd5b6000819050919050565b6129f16129ec82612333565b6129d6565b82525050565b6000612a03828661295f565b9150612a0f82856129e0565b602082019150612a1f82846129e0565b602082019150819050949350505050565b7f4e487b7100000000000000000000000000000000000000000000000000000000600052601160045260246000fd5b6000612a6a82612333565b91507fffffffffffffffffffffffffffffffffffffffffffffffffffffffffffffffff8203612a9c57612a9b612a30565b5b600182019050919050565b6000612ab282612333565b9150612abd83612333565b9250827fffffffffffffffffffffffffffffffffffffffffffffffffffffffffffffffff03821115612af257612af1612a30565b5b828201905092915050565b7f4e487b7100000000000000000000000000000000000000000000000000000000600052601260045260246000fd5b6000612b3782612333565b9150612b4283612333565b925082612b5257612b51612afd565b5b828204905092915050565b6000612b6882612333565b9150612b7383612333565b925082821015612b8657612b85612a30565b5b828203905092915050565b7f4e487b7100000000000000000000000000000000000000000000000000000000600052602260045260246000fd5b60006002820490506001821680612bd857607f821691505b602082108103612beb57612bea612b91565b5b50919050565b60006060820190508181036000830152612c0b8186612871565b9050612c1a602083018561233d565b612c27604083018461233d565b949350505050565b6000612c3a82612333565b9150612c4583612333565b9250817fffffffffffffffffffffffffffffffffffffffffffffffffffffffffffffffff0483118215151615612c7e57612c7d612a30565b5b82820290509291505056fea2646970667358221220f9166d70728f450a4389b83109e74098eddb849052229d8dc622420afc46e35664736f6c634300080d0033",
  "immutableReferences": {},
  "source": "// SPDX-License-Identifier: GPL-3.0\npragma solidity ^0.8.10;\n\ncontract Timestamping {\n\n    string fileHash;\n    uint state1=0;\n    uint state2=0;\n    address owner; // contract owner\n     // each customer can have a stamp pending order\n    mapping (string => order) orders;\n    mapping (address => uint) stampers;\n    address[] stampersList;\n    mapping (address => uint) balance;\n    \n    uint lastRequest = 0; // records the time of the last request. is used to prevent providers from unlinking before the stamp is finalized \n    uint bail = 1000000000000000000;// value of caucao em wei -> 1 Ether\n    uint minimumProviders = 3; // minimum number of providers for the stamp to be valid\n    uint rewardWindow = 10;// 20 seconds\n    uint commitmentWindow = 16; // commitment and decommitment window\n    uint minimumDeposit = 10000000000000000; // minimum stamp value in wei -> 0.01 Ether\n    uint commitmentsLimit = 10;// commitment limit\n    uint reimburseRequester = 10000000000000000; // refund amount in wei to the requester -> 0.001 Ether\n    uint reimburseProvider = 1000000000000000;// refund amount in wei for participating providers -> 0.0001 Ether\n    \n   /* Debug variables */\n    bytes32 byt;\n    address addr;\n    uint uin;\n\n    constructor()  {\n        owner = msg.sender;\n    }\n\n    struct order {\n        address[] stampers;\n        bytes32[] commitments;\n        uint[] times; // need in seconds\n        address requester;\n        uint t1;\n        uint t2;\n        uint t3;\n        uint deposit;\n        uint timestamp;\n        uint status; // 0 - not finished, 1 - successfully finished, 2 - unsuccessfully finished\n    }\n    \n    modifier onlyOwner() {\n        require(owner == msg.sender);\n        _;\n    }\n    \n    modifier commitmentsRestrictions(string memory data) {\n        require(stampers[msg.sender] == 1);\n        require(orders[data].commitments.length < commitmentsLimit);\n        _;\n    }\n    \n    modifier requestRestrictions() {\n        require(msg.value >= minimumDeposit); \n        _;\n    }\n\n    modifier revealRetrictions(string memory data) {\n        require(stampers[msg.sender] == 1);\n        require(isRevealInterval(data) == 1);\n        _;\n    }\n    \n    modifier selectRestrictions(string memory data) {\n        require(orders[data].requester == msg.sender);\n        require(isSelectStampInterval(data) == 1);\n        _;\n    }\n    \n    modifier withdrawalRestricion() {\n        require(lastRequest + 48 < block.number);\n        _;\n    }\n\n    event Datasender(string _data,uint _t2,uint _t3);\n\n/* User says he wants to stamp something */\n    function requestTimestamp(string memory data) public payable requestRestrictions {\n        fileHash=data;\n        state1=1;\n        orders[data].requester = msg.sender;\n        orders[data].t1 = block.timestamp;\n        orders[data].t2 = orders[data].t1 + 30;\n        orders[data].t3 = orders[data].t2 + 30;\n        orders[data].deposit = msg.value;\n        orders[data].status = 0;\n        lastRequest = block.number;\n        emit Datasender(data, orders[data].t2, orders[data].t3);\n    }\n\n/* Provider registers for the service */\n    function joinStamper() public payable {\n        bool flag = true;\n        for (uint i = 0; i < stampersList.length; i++) {\n            if (stampersList[i] == msg.sender) {\n                flag = false;\n                break;\n            }\n        }\n        if (flag) {\n            stampersList.push(msg.sender);\n        }\n        balance[msg.sender] += msg.value;\n        if (balance[msg.sender] >= bail) {\n            stampers[msg.sender] = 1;\n        }\n    }\n/* Provider sends commitment to 'data' before time T2 */\n    function sendCommitment(string memory data, bytes32 commitment) public commitmentsRestrictions(data) {\n        orders[data].stampers.push(msg.sender);\n        orders[data].commitments.push(commitment);\n    }\n    \n/* Provider releases commitment for 'data' between time T2 and T3 */\n    function revealCommitment(string memory data, uint time, uint nonce) public revealRetrictions(data) {\n        for (uint i = 0; i < orders[data].stampers.length; i++) {\n            if (orders[data].stampers[i] == msg.sender){\n                if (keccak256(abi.encodePacked(data,time,nonce)) == orders[data].commitments[i]) {\n                    orders[data].commitments[i] = bytes32(time);\n                    orders[data].times.push(time);\n                    state2=1;\n                } \n                break;\n                 \n                \n            }\n        }\n    }\n\n\n  \n/* User requests stamp after time T3 */\n    function selectStampRequester(string memory data) public{\n\n        uint t=0;\n            for(uint i=0; i<orders[data].times.length; i++)\n            {\n                t=t+orders[data].times[i];\n            }\n            orders[data].timestamp=uint(t/orders[data].times.length);\n            reimburse(data);\n            orders[data].status = 1;\n            delete orders[data].stampers;\n            delete orders[data].commitments;\n            delete orders[data].times;\n            delete orders[data].t1;\n            delete orders[data].t2;\n            delete orders[data].t3;\n            delete orders[data].deposit;\n            delete fileHash;\n            state1=0;\n    }\n    \n    \n   \n/* Query functions after stamp completion */\n    function getTimestamp(string memory data) public view returns(uint) {\n        return orders[data].timestamp;\n    }\n    \n    function getRequester(string memory data) public view returns(address) {\n        return orders[data].requester;\n    }\n\n \n/* Helper sort functions */\n    function sortArray(string memory data) internal {\n        quicksort(data, 0, int(orders[data].times.length-1));\n    }\n    \n    function quicksort(string memory data, int low, int high) internal {\n        if (low < high) {\n            int split = partition(data, low, high);\n        require(owner == msg.sender);\n            quicksort(data, low, split-1);\n            quicksort(data, split+1, high);\n        }\n    }\n    \n    function partition(string memory data, int low, int high) internal returns(int) {\n        int i = low - 1;\n        uint troca ;\n        for (int j = low; j < high; j++) {\n            if (orders[data].times[uint(j)] <= orders[data].times[uint(high)]) {\n                i++;\n                 troca = orders[data].times[uint(i)];\n                orders[data].times[uint(i)] = orders[data].times[uint(j)];\n                orders[data].times[uint(j)] = troca;\n            }\n        }\n         troca = orders[data].times[uint(i+1)];\n        orders[data].times[uint(i+1)] = orders[data].times[uint(high)];\n        orders[data].times[uint(high)] = troca;\n        return i+1;\n    }\n    \n   /* Auxiliary query functions */\n    function isCommitmentInterval(string memory data) public view returns(uint) {\n        if ((block.timestamp < orders[data].t2 || orders[data].t1 == 0) && orders[data].status == 0)\n            return 1;\n        return 0;\n    }\n    \n    function isRevealInterval(string memory data) public view returns(uint) {\n        if (block.timestamp >= orders[data].t2 && block.timestamp < orders[data].t3)\n            return 1;\n        return 0;\n    }\n    \n    function isSelectStampInterval(string memory data) public view returns(uint) {\n        if (block.timestamp >= orders[data].t3 && orders[data].t3 != 0)\n            return 1;\n        return 0;\n    }\n    \n    function blockNumber() public view returns(uint) {\n        return block.number;\n    }\n    \n    function getOrderT1(string memory data) public view returns(uint) {\n        return orders[data].t1;\n    }\n    \n    function getOrderT2(string memory data) public view returns(uint) {\n        return orders[data].t2;\n    }\n    \n    function getOrderT3(string memory data) public view returns(uint) {\n        return orders[data].t3;\n    }\n       \n    \n    function getOrderDeposit(string memory data) public view returns(uint) {\n        return orders[data].deposit;\n    }\n    \n    function getStatus(string memory data) public view returns(uint) {\n        return orders[data].status;\n    }\n    \n    function getStampers() public view returns(address [] memory ){\n        return stampersList;\n    }\n\n    function getFilehash()public view returns(string memory) {\n        return fileHash;\n    }\n     function getState1()public view returns(uint){\n        return state1;\n    }\n    function getState2()public view returns(uint){\n        return state2;\n    }\n/* Configuration area */\n\n\n    function setBail(uint value) public onlyOwner {\n        bail = value;\n    }\n\n\n    function setMinimumProviders(uint value) public onlyOwner {\n        minimumProviders = value;\n    }\n    \n\n\n    function setRewardWindow(uint value) public onlyOwner {\n        rewardWindow = value;\n    }\n    \n\n    function setCommitmentWindow(uint value) public onlyOwner {\n        commitmentWindow = value;\n    }\n    \n\n\n    function setMinimumDeposit(uint value) public onlyOwner {\n        minimumDeposit = value;\n    }\n\n\n\n    function setCommitmentsLimit(uint value) public onlyOwner {\n        commitmentsLimit = value;\n    }\n    \n \n\n    function setReimburseRequester(uint value) public onlyOwner {\n        reimburseRequester = value;\n    }\n\n    function setReimburseProvider(uint value) public onlyOwner {\n        reimburseProvider = value;\n    }\n\n/* Financial area */\n\n  \n    function withdrawalAndContinue() public payable  withdrawalRestricion {\n        if (balance[msg.sender] > bail) {\n           payable(msg.sender).transfer(balance[msg.sender] - bail);\n            balance[msg.sender] = bail;\n        }\n    }\n    \n\n\n    function withdrawalAll() public payable withdrawalRestricion {\n       payable( msg.sender).transfer(balance[msg.sender]);\n        balance[msg.sender] = 0;\n        stampers[msg.sender] = 0;\n    }\n    \n\n    function getBalance() public view returns(uint) {\n        return balance[msg.sender];\n    }\n    \n   \n// Function to reimburse the applicant and the providers that participated\n    function reimburse(string memory data) internal {\n       // Number of providers that participated\n        uint providers = orders[data].stampers.length;\n        \n       // Counts the number of active contributors\n        uint collaborators = 0;\n        for (uint i = 0; i < stampersList.length; i++) {\n            if (stampers[stampersList[i]] == 1) {\n                collaborators++;\n            }\n        }\n        collaborators -= providers;\n        \n        if (collaborators > 0) {\n            // Collects contributions from each employee, including participants\n            uint collaborationValue = (reimburseRequester + providers * reimburseProvider)/collaborators;\n            for (uint i = 0; i < stampersList.length; i++) {\n                if (stampers[stampersList[i]] == 1) {\n                    balance[stampersList[i]] -= collaborationValue;\n                }\n            }\n            \n            \n// Refund participants\n            for (uint i = 0; i < orders[data].stampers.length; i++) {\n                balance[orders[data].stampers[i]] += (collaborationValue + reimburseProvider);\n            }\n            \n            \n// Reimburse the applicant the value of the stamp + collaboration\n            balance[orders[data].requester] += (orders[data].deposit + reimburseRequester);\n        } else {\n           \n// Refunds the applicant the stamp value\n            balance[orders[data].requester] += orders[data].deposit;\n        }\n    }\n    \n    \n// Function to distribute reward\n    function reward(string memory data, uint first, uint last) internal {\n       \n        uint rewardValue = orders[data].deposit/(last - first + 1);\n        for (uint i = first; i <= last; i++) {\n            for (uint j = 0; j < orders[data].commitments.length; j++) {\n                if (orders[data].commitments[j] == bytes32(orders[data].times[i])) {\n                    balance[orders[data].stampers[j]] += rewardValue;\n                }        \n            }\n        }\n    }\n    \n\n\n/* Debug functions */\n    \n    function getOrderStampTimes(string memory data) public view returns(uint[] memory) {\n        return orders[data].times;\n    }\n\n    function getByt() public view returns(bytes32) {\n        return byt;\n    }\n    \n    function getAddr() public view returns(address) {\n        return addr;   \n    }\n\n    function getUin() public view returns(uint) {\n        return uin;\n    }\n\n    function getBalanceThis() public view returns(uint) {\n        return address(this).balance;\n    }\n}",
  "sourcePath": "/home/monster007/Desktop/blockchain-project/contracts/Timestamping.sol",
  "compiler": {
    "name": "solc",
    "version": "0.8.13+commit.abaa5c0e.Emscripten.clang"
  },
  "schemaVersion": "3.4.5",
  "updatedAt": "2022-04-25T04:51:55.177Z",
  "networkType": "ethereum",
  "devdoc": {
    "kind": "dev",
    "methods": {},
    "version": 1
  },
  "userdoc": {
    "kind": "user",
    "methods": {},
    "version": 1
  }
}